:020000040800F2
:10000000D80D002079020008F56E0008D120000804
:10001000F16E000809190008EF8C000800000000CC
:100020000000000000000000000000004B7200080B
:10003000891B0008000000007D6F0008C9730008DC
:10004000930200089302000893020008930200083C
:10005000930200089302000893020008930200082C
:10006000930200089302000893020008930200081C
:10007000930200089302000893020008930200080C
:1000800093020008930200089302000893020008FC
:1000900093020008930200089302000893020008EC
:1000A00093020008930200089302000893020008DC
:1000B000930200082D740008A5750008930200083B
:1000C00093020008930200089302000893020008BC
:1000D000930200084989000893020008930200086F
:1000E000930200089302000893020008930200089C
:1000F000930200089302000893020008930200088C
:10010000930200089302000893020008930200087B
:10011000930200089302000893020008930200086B
:10012000930200089302000893020008930200085B
:1001300000F002F800F090F80AA090E8000C824469
:100140008344AAF10107DA4501D100F085F8AFF246
:10015000090EBAE80F0013F0010F18BFFB1A43F0A5
:1001600001031847ECA900000CAA0000103A24BFB4
:1001700078C878C1FAD8520724BF30C830C144BF0C
:1001800004680C607047000000230024002500264E
:10019000103A28BF78C1FBD8520728BF30C148BFEA
:1001A0000B6070476E2900F0E682702900F05F81D5
:1001B000662909F07F80652909F07C80672909F0AC
:1001C00079806129AFF3008003681B0A28BF41F0E2
:1001D0008001692900F0D080642900F0CD80752964
:1001E00000F0CA806F2900F0DF83782900F02B81AE
:1001F000E92900F07983E42900F07683F52900F0FD
:100200007383EF2900F0DC83F82900F02A8103686A
:10021000DB0928BF41F08001632900F0E8827329DF
:1002200000F0ED82E32900F03186F32900F03686F4
:10023000002070471FB500F087FE04000020002159
:1002400008F0E4FE401C60600020002108F0C8FEB9
:10025000E0601FBD10B510BD00F048FE1146FFF76D
:10026000E9FF08F0E1FD00F021FF03B4FFF7F2FF22
:1002700003BC08F059FD00000948804709480047C1
:10028000FEE7FEE7FEE7FEE7FEE7FEE7FEE7FEE746
:10029000FEE7FEE704480549054A064B70470000A3
:1002A000CD73000831010008D8070020D80D0020C8
:1002B000D8090020D8090020704700001CB50C4662
:1002C000064B7B4469460090204600F06EFA0446D7
:1002D0000020694600F07CFA20461CBD0B0500009A
:1002E0000FB4044910B503AA029800F08DFA10BCAF
:1002F0005DF814FB200000200FB41CB5084B06AAC3
:100300007B4469460090059800F04FFA04460020AF
:10031000694600F05DFA20461CBC5DF814FB000045
:10032000CD04000070B50C460546012A05D028789A
:10033000800600D5EA69002302E0012305E05B1C8A
:10034000934202D2E05C0028F9D1A869E618C01AED
:10035000A861286A18442862284600F07AF904E067
:10036000D5E9012114F8010B9047B442F8D328468F
:1003700000F085F970BD00002DE9F041064600242B
:1003800010687529314616A510D000F089F90028AB
:1003900002DA404213A507E031688A0701D512A5A9
:1003A00002E0490704D511A5012401E000F081F91C
:1003B00000210A2206F1240709E0B0FBF2FCB0FBA1
:1003C000F2F302FB1C00303078541846491C002818
:1003D000F3D123462A463046BDE8F04100F072B919
:1003E000000000002D0000002B0000002000000095
:1003F000F0B40D460188090502D5214C7C4402E089
:100400001F4C7C440E34002100F1240608E002F069
:100410000F071209E75D42EA03721B097754491C72
:1004200052EA0307F3D102780023120704D5702D96
:1004300006D009B1022311342246F0BC00F042B9C3
:1004400001231034F8E770B504460D4621461068C4
:1004500000F02FF9024629462046BDE870400023EF
:10046000C6E7D21D22F00703D3E90023C0E70368E3
:10047000126843F0200303600823C3610023B7E739
:1004800078A600002DE9F05F894604464FF0000A87
:10049000DFF874B1FB44C0F820A02046E16888472B
:1004A000002874D0252806D0D4E901219047206A7D
:1004B000401C2062F1E700265F462046E16888473D
:1004C0002028054607DB312D05D2781910F8200CBD
:1004D00008B10643F1E7B00701D526F00406C4F8D9
:1004E0001CA00027C4F818A02A2D09D0284608F01F
:1004F00014FC38B304EB8708303DC8F8185019E0F5
:1005000059F8041B204604EB87029161E168884793
:10051000012F054618D1E069002820DA26F02006D0
:100520001DE0D8F8180000EB800005EB40003038E3
:10053000C8F818002046E1688847054608F0EDFB3A
:100540000028EED1012F0AD02E2D08D12046E168D7
:1005500088477F1C0546022F46F02006C4DBA069B1
:10056000002803DA404246F00106A061F00701D0FE
:1005700026F010066C2D0BD0682D09D04C2D39D0EB
:100580006A2D35D0742D35D07A2D33D016E038E071
:10059000E1682F4620468847B842054609D16C2FAE
:1005A00026D04FF48060E168064320468847054620
:1005B00004E06C2F1AD04FF4807006430DB3A5F100
:1005C0004100192802D8203546F400664A462946DB
:1005D000204626604E46FFF7E5FD80B101280BD08E
:1005E000F61D26F0070000F1080956E74020E4E771
:1005F0008020D8E70020D6E706F104094DE7284619
:1006000052E7206ABDE8F09F08A6000010B5431C21
:1006100002E010F8011B71B18107FAD14FF00132ED
:1006200002C88C1A8C4314EAC211F9D0C01A0A0607
:1006300003D0C01E10BDC01A10BD0A0401D0801E18
:1006400010BD0902FCD0401E10BD704770477047B6
:10065000704770B5044685690068C10601D530262B
:1006600000E02026C00707D070BDD4E90121304644
:100670009047206A401C20626D1EF6D570BD70B593
:10068000044685690078C00707D170BDD4E901210F
:1006900020209047206A401C20626D1EF6D570BD58
:1006A00009684A0501D540B27047C905FCD500B2BA
:1006B000704709684A0501D5C0B27047C905FCD525
:1006C00080B270472DE9F0470D46994692460446A0
:1006D00000F124080168880604D5E06921F01001C2
:1006E000216000E00120A84201DD471B00E0002757
:1006F000A1697A1902EB0900081AA0612078C006E6
:1007000002D42046FFF7A5FF002608E0D4E9012126
:100710001AF806009047206A401C761C20624E455D
:10072000F4DB2078C0060AD52046FFF792FF06E0EA
:10073000D4E9012130209047206A401C2062381EF5
:10074000A7F10107F4DC07E0D4E9012118F805005E
:100750009047206A401C2062281EA5F10105F3DCA9
:100760002046FFF78CFF2078000602D50220BDE866
:10077000F0870120FBE711680268006A530501D584
:1007800008700AE0D30501D5088006E0130603D5FA
:10079000C217C1E9000200E00860012070470000B4
:1007A00001694A1C02610878704700B58FB0CDE935
:1007B00001310021059105497944CDE90310114625
:1007C0006846FFF75FFE0FB000BD0000E5FFFFFFCA
:1007D0000A6802F8010B0A60704710B5436913B14B
:1007E000AFF3008001E0FFF79DFD012010BD1278FE
:1007F00000F124010A7000224A700122EDE711681D
:100800004FF0FF32E9E70000074B70B50D467B441F
:10081000FFF7CBFF0446284600F044FB10B14FF031
:10082000FF3070BD204670BDFB8500002DE9FF5FE5
:1008300015468A460446DFF8AC80F8440027D8E91C
:1008400000103E46CDE9001010E03AF816106A4656
:1008500002A800F02BFB411C07D02178890603D5A4
:10086000E269391891420DD80744761C2078800639
:1008700002D5E069B84205DDAE42E6DB3AF8160083
:100880000028E2D1A069C01BA0612046FFF7E1FE6D
:10089000D8E90010CDE90010002017E03AF8181050
:1008A0006A4602A800F002FBB0F1FF3F81460BD080
:1008B00000250DF1080B05E0D4E901211BF8050026
:1008C00090476D1C4D45F7D308F10100B0428046BA
:1008D000E4DB206A384420622046FFF7D0FEBDE802
:1008E000FF9F000076A200002DE9F0418046D21D56
:1008F00022F007020025D2E90002F52915A614D03E
:10090000011E72F1000106DA0023D0EB030063EB55
:10091000020211A608E0D8F800108B0701D50FA637
:1009200002E0490701D50EA601251146002408F171
:10093000240704E000F04EF830323A55641C50EAC7
:100940000102F7D12B46324621464046BDE8F04130
:10095000FFF7B8BE000000002D0000002B000000D3
:100960002000000030B4002100F1240408E002F06F
:100970000705D208303542EA4372DB086554491C4A
:1009800052EA0305F3D10468002310A2250708D515
:1009900004F020040C4304D0C46901230CA2641E9B
:1009A000C46130BCFFF78EBE10B504462146106806
:1009B000FFF77FFE02462046BDE810400023D1E746
:1009C000D21D22F00701D1E90023CBE7000000008F
:1009D0003000000030B5B0F10A024FEA900E71F11C
:1009E00000034EEA817EB0EB0E0061EB91014FEA0D
:1009F000101E4EEA017E10EB0E0041EB11114FEA82
:100A0000102E4EEA016E10EB0E0041EB11214FEA61
:100A1000104E4EEA014E10EB0E0041EB1141401812
:100A200041F100014FEAD00040EA41704FEAD101A4
:100A300010EB80054FEA810444EA907444EB010412
:100A40006D1944EB0404521BA3414FF0000348BF4F
:100A50000A3200D530BD401C41F1000130BD704765
:100A60002DE9FF4F0C461E464FF0FF378BB0D2E901
:100A70000001DDF860800A908A46C1F30A5505B985
:100A80003D46002108464FF00000BAF1000F00F487
:100A9000400005DA00EB80004FF4400101EA50000D
:100AA0004FEA9059B9F1010F00DDB9460A9850EAB2
:100AB0004A000ED044F61050A5F2FF3545432F14DE
:100AC000B8F1000F1ED07542291E1EDDC9F10002CB
:100AD0001CE0B8F1010F4FF0000001D0302103E01D
:100AE000F24305E02154401CB042FBDB30460022BB
:100AF000002121540B99C1F80880C1E900200FB0F2
:100B0000BDE8F08FBD1B6D1CDEE74A4600DA694286
:100B100006A800F05DFA06AB93E8070003AB83E894
:100B2000070050460A9900F00BFB8DE80700A0F57E
:100B300000501F3800900398002D09DD42F21F017C
:100B40004A46084403A90390684600F06AFD08E09D
:100B5000A0F500504A461F3803A90390684600F0EC
:100B600074FD8DE807000004000C03D04FF0FF3047
:100B7000410800E01046B8F1000F03D000220092B7
:100B800015461EE0751E05D4FFF724FF303262556E
:100B90006D1EF9D5B3460122084302D000227F1C06
:100BA00004E02078302801D100227F1E002A099716
:100BB00086D01DE0112D07DAFFF70CFF30326255A9
:100BC0006D1C50EA0102F5D1084302D00098C8B16B
:100BD0000EE00021681E05E0235C625C6354225431
:100BE000401E491C8142F7DBAB46A81B401E099002
:100BF000002004F80B000B98099AC0F80880C0E99F
:100C0000002B7CE711264FF0000859E72DE9F04F43
:100C100088460446D21D22F0070191B0D1E90001B7
:100C2000CDE90A0108F065F802460B98C00F01D023
:100C30002D2007E02068810701D52B2002E020212C
:100C400001EAC000032A099001D0072A05DB034608
:100C50004146204600F07CF90BE12078800601D562
:100C6000E06900E00620B8F1650F814606D0B8F1D2
:100C7000660F18D0B8F1670F70D131E00020B9F1DC
:100C8000110F009001DB112301E009F101030AAA11
:100C900001A90CA8FFF7E4FEDDE90C70002609F1BC
:100CA0000105834647E001204B4600904FF0004786
:100CB0000AAA01A90CA8FFF7D3FEDDE90DB00C9933
:100CC0005D46002610B909F101000D18B9EB0500C9
:100CD00003D4C0F1FF3609F10105A5EB09002BE0B3
:100CE000B9F1010F01DA4FF001090020B9F1110F3C
:100CF0000090484601DD112300E003460AAA01A93D
:100D00000CA8FFF7ADFEDDE90C704D4600268346CA
:100D1000207800070AD4AB4500DA5D4601A8012D12
:100D200004DD411911F8011C302907D04F4502DAC2
:100D300017F1040F04DA012082460FE06D1EEEE782
:100D4000002F02DCED1B3E4403E0781CA84200DDCE
:100D50007D1CB81B00F1010A4FF000472078000706
:100D600003D4AA4501DB4FF0FF3A0021B7F1004F51
:100D70000DF143088DF8431024D002202B23002FBF
:100D800001DA7F422D230A21021EA0F1010000DCBE
:100D90005FB197FBF1FC97FBF1F201FB1C7C17465E
:100DA0000CF1300C08F801CDEEE7A8F1010003705A
:100DB0002188090501D5452100E06521A0F1010840
:100DC00000F8011C09980FA9A1EB0807FF1D00B14D
:100DD0000120411901EBEA70A1693844081A401E4C
:100DE000A0612078C00602D42046FFF732FC0998A3
:100DF00028B1D4E901219047206A401C2062207864
:100E0000C00622D52046FFF724FC1EE0002E04DB9E
:100E1000B34502DD01A8805D00E03020D4E9012166
:100E20009047206A401C2062761CAAF101005FEA0C
:100E3000000A0AD100F088F8C0680168405CD4E973
:100E400001219047206A401C2062281EA5F101055F
:100E5000DCDC07E0D4E9012118F8010B9047206A97
:100E6000401C2062381EA7F10107F3DC2046FFF783
:100E700006FC032011B043E610B5436913B1AFF38C
:100E8000008001E0FFF7D2FC012010BD128800F1C4
:100E9000240182840022C2840122EDE711684FF010
:100EA000FF32E9E7007B00F08000704770B516461E
:100EB0000C46054600F040F8036893F8010101284C
:100EC00006D0FF2C0FD8185D68B101202C7070BDC2
:100ED000D3F807013246214603F20713034428469C
:100EE000BDE8704018474FF0FF3070BD754600F008
:100EF000E3F8AE4605006946534620F007008546F4
:100F000018B020B5FFF7C6F9BDE820404FF0000645
:100F10004FF000074FF000084FF0000B21F00701E1
:100F2000AC46ACE8C009ACE8C009ACE8C009ACE824
:100F3000C0098D467047000010B500F005F8001D8F
:100F400010BD00BFC980000000487047980700200E
:100F50002DE9F0411F46044603260168072A01F4E3
:100F6000006004DB08B116A505E016A503E008B192
:100F700015A500E015A521F010002060A069C01E95
:100F8000A0610FB1401EA0612046FFF762FB4FB188
:100F9000D4E9012138469047206A401C2062C01CD9
:100FA000206206E0206AFAE7D4E9012115F8010B76
:100FB0009047761EF8D22046FFF761FBBDE8F0812E
:100FC0004E414E006E616E00494E4600696E6600ED
:100FD0002DE9F047814616468AB0334878440DC85B
:100FE0008DE80D0030487844801C03AC0DC884E8BF
:100FF0000D0041F69B300844372190FBF1F290FB45
:10100000F1F5A5F1800501FB12041B3C02D56442F9
:10101000012000E00020DFF890A080460027FA447D
:10102000AAF1BE0A0DE0E00709D03246684607EB98
:1010300047010AEB810100F008FB8DE8070064100E
:101040007F1C002CEFD1184F7F44AC3F18E0E8071D
:1010500014D007EB04100DF1180A90E80E008AE88E
:101060000E00C068F04201D198190890324606A9D6
:1010700003A800F0EAFA03AB83E807006D10641CD4
:10108000002DE4D132466946B8F1000F03A802D022
:1010900000F0C7FA01E000F0D8FAC9E90001C9F888
:1010A00008200AB0BDE8F087589B00000446AFF363
:1010B00000802046FFF7D9F80048704778070020E5
:1010C0004FF0013C50F8042B51F8043B9A4221D1D7
:1010D000A2EB0C03934313EACC1317D150F8042B63
:1010E00051F8043B9A4215D1A2EB0C03934313EA47
:1010F000CC130BD150F8042B51F8043B9A4209D180
:10110000A2EB0C03934313EACC13DBD04FF00000A7
:10111000704700BFD01A01BAB1FA81F101F018018D
:1011200022FA01F0CB40C1F12001DBB2C0B2C01AFB
:101130002CFA01F3D11A914311EAC311E6D1704799
:101140005FEA400C08BF91F0000F4FEA8C234FEA92
:10115000C12243EA51514FEA1C5018BF00F5F0403C
:101160004FEA300018BF41F000415FEA6C5C00F0CC
:101170002980BCF1FF3F08BF40F080407047130C4E
:1011800006BF12044FF0100C4FF0000C130E04BFFA
:1011900012020CF1080C130F04BF12010CF1040C25
:1011A000930F04BF92000CF1020CD30F04BF520046
:1011B0000CF1010C11464FF00002A0F11F00A0EB52
:1011C0000C00704711F0004F08BF704731F000412C
:1011D0003FF4D5AF0B0C06BF09044FF0100C4FF0D5
:1011E000000C0B0E04BF09020CF1080C0B0F04BF1E
:1011F00009010CF1040C8B0F04BF89000CF1020CE7
:10120000CB0F04BF49000CF1010CCCF12003A0EB83
:101210000C0022FA03F302FA0CF241EA030100F196
:101220000100704720F07F4C80EA030023F07F47E5
:10123000ACEB070303F57C5300F0004003F1FF0320
:101240002DE980494FEA154B09B44FEA144325EACA
:101250000B4E24EA03480FF2042606EB1327490835
:101260003E785FEA320203FB0667C7F5000707FB1B
:1012700006F64FEA54374FEAD64606F1020607FB58
:10128000066CCCF1005C4FEA1C472CEA074C07FBCC
:1012900006F40CFB06F504EB15464FEA961634BF30
:1012A00000204FF000404FEAD13706FB07FC4FEA21
:1012B0001C4C0CFB0BF7D21B03FB0CF761EB07017B
:1012C0000CFB0EF7B0EB074072EB17420CFB08F774
:1012D00034BFA2EB0742B2EB074261EB17414FEA82
:1012E0000C444FEA910706FB07FC4FEA1C4C0CFB31
:1012F0000BF7B0EBC74072EB573203FB0CF734BF70
:10130000A2EBC742B2EBC74261EB57310CFB0EF7C1
:10131000B0EBC70072EB57720CFB08F734BFA2EBBF
:10132000C702B2EBC70261EB5771039F4FEA8161BD
:1013300041EA921104EBCC044FEAD1374FEA8262C2
:1013400006FB07FC42EA90124FEA80604FEA1C4C11
:101350000CFB0BF7D21B03FB0CF761EB07010CFB3B
:101360000EF7B0EB074072EB17420CFB08F734BFE7
:10137000A2EB0742B2EB074261EB17414FEA8C55F3
:101380004FEA910704EB9C2406FB07FC4FEA1C4C38
:101390000CFB0BF7B0EBC74072EB573203FB0CF7BB
:1013A00034BFA2EBC742B2EBC74261EB57310CFB33
:1013B0000EF7B0EBC70072EB57720CFB08F734BFA7
:1013C000A2EBC702B2EBC70261EB577115EB4C25DC
:1013D0004FEA816141EA92114FEA82624FEAD137C6
:1013E00042EA901206FB07FC44F100044FEA8060D9
:1013F0004FEA1C4C0CFB0BF7D21B03FB0CF761EB09
:1014000007010CFB0EF7B0EB074072EB17420CFB29
:1014100008F734BFA2EB0742B2EB074261EB17417A
:1014200015EB1C154FEA813141EA92414FEA8232B5
:1014300042EA90424FEA80304FEA0C7644F10004D1
:1014400048EA03434EEA0B484FF0000EB2EB080C9B
:1014500071EB030724BF624639464EEB0E0E4FF088
:10146000000B0018524149414BEB0B0BB2EB080C3F
:1014700071EB03077BF1000B24BF624639464EEB4C
:101480000E0E4FF0000B0018524149414BEB0B0B75
:10149000B2EB080C71EB03077BF1000B24BF624633
:1014A00039464EEB0E0E51EA020718BF46F0010610
:1014B00016EB0E7655F1000254F1000103D5BDE89C
:1014C0008901BDE80088BDE88901BDE80048B6197A
:1014D000524141EB0101A3F10103704780807F7EFF
:1014E0007D7C7B7A7978777676757473727171709A
:1014F0006F6E6E6D6C6C6B6A6A696868676666654C
:101500006464636362616160605F5F5E5E5D5D5CD9
:101510005C5B5B5A5A59595858575756565555554A
:101520005454535352525251515050504F4F4F4EAA
:101530004E4D4D4D4C4C4C4B4B4B4A4A4A494949F8
:10154000484848474747474646464545454444443A
:10155000444343434342424242414141002B26D44B
:10156000770021D01CB54FEA370703B44FF01000C5
:101570004FF010014FF000000FBCBDE810400BF120
:10158000010BBBF1010F08BF5FEA170722BF12F181
:10159000010211F101014FF0004143F1000300F09D
:1015A000004043EA00007047F9D35708DAE746EAFB
:1015B000064613F1400F4FEA16461FDD13F1200FC8
:1015C000DFBF16430A46002120335B42C8D0C3F177
:1015D000200746EA064602FA07F74FEA164646EAA9
:1015E0000706C3F1200722FA03F201FA07F721FAEE
:1015F00003F14FF0000342EA0702B1E746EA0206B0
:1016000046EA06464FEA164646EA0106BCBF46EAE7
:101610000646360C4FF000034FF000024FF0000179
:101620009EE72DE9C048934630B491E8380007C8DA
:1016300031EA400C48BF34EA430C03D5FFF7F2FD12
:10164000FFF78CFFF0BCBDE800882DE9C048934649
:1016500030B491E8380007C810F0804F08BF13F08D
:10166000804F03D100F005F8FFF778FFF0BCBDE82C
:10167000008820F07F4780EA030023F07F4C07EBCF
:101680000C03A3F57C5300F00040A3F1FE0392F09D
:10169000000F00F0B38095F0000F00F077802DE987
:1016A00001494FEA11404FEA144621EA004800FB85
:1016B00006FC24EA064708FB06F607FB08F800FBD1
:1016C00007F718EB06484CEB164C4FEA124B18EB99
:1016D00007484FEA15464CEB174022EA0B4E0BFB2E
:1016E00006FC25EA06470EFB06F607FB0EFE0BFB83
:1016F00007F71EEB064E4CEB164C4FF000061EEBA8
:10170000074E4CEB174B18EB0B0840F1000018EBA1
:101710000E0B58EB000840F100008F1A4FF000014B
:101720003CBFC943661B14BFB5EB040C00213CBF92
:10173000C943F61B4FEA17444EEA8E0E27EA0445CA
:101740004FEA1C4704FB07622CEA074C05FB07F72E
:101750000CFB05F604FB0CFC16EB074642EB1742AC
:1017600016EB0C4642EB1C421BEB060658EB020242
:10177000414146EA9E0601D5BDE80189B6195241AC
:1017800041EB0101A3F10103BDE801894FEA1445D2
:101790004FEA114724EA054621EA074C05FB07F406
:1017A00006FB07F70CFB06F105FB0CFC11EB0741F0
:1017B00044EB17444FEA124711EB0C4144EB1C4435
:1017C00022EA074C05FB07F206FB07F70CFB06F6BF
:1017D00005FB0CFC16EB074642EB174216EB0C46DA
:1017E00042EB1C456A1854F1000148BF7047B61916
:1017F000524141EB0101A3F10103704795F0000F45
:1018000037D04FEA11424FEA144721EA024624EA50
:10181000074C02FB07F106FB07F70CFB06F402FB83
:101820000CFC14EB074441EB17414FEA154714EB4E
:101830000C4441EB1C4125EA074C02FB07F506FB73
:1018400007F70CFB06F602FB0CFC16EB074645EB14
:10185000174516EB0C4645EB1C42121951F10001DD
:1018600048BF7047B619524141EB0101A3F1010392
:1018700070474FEA14454FEA114724EA054621EA2A
:10188000074C05FB07F106FB07F70CFB06F24FF0D0
:10189000000605FB0CFC12EB074241EB174112EB73
:1018A0000C4251EB1C4148BF7047921841EB0101BB
:1018B000A3F101037047000000B50120054908604D
:1018C00000F00CF800200449C1F8980100F006F877
:1018D00000BD00009881214200802142002001E0EB
:1018E000411CC8B22828FBDB704710B54FF4A0603C
:1018F00005F03AFB05F09CFC00F02EFB0A2007F0F7
:1019000039FA00F003F810BD00BFFEE71CB513E084
:1019100028A018210B46C822CDE900100A211E205C
:1019200005F052F928A018210B46C822CDE9001075
:101930002821002005F048F9264800886428E7D1CE
:1019400025480068642190FBF1F0234908600846AF
:101950004068642190FBF1F01F49486008468068A8
:10196000642190FBF1F01C4988600846C06864213E
:1019700090FBF1F01849C86008460069642190FBAB
:10198000F1F01549086108464069642190FBF1F0C7
:101990001149486108468069642190FBF1F00E49C5
:1019A00088610846C069642190FBF1F00A49C8616A
:1019B0001CBD000053797374656D20496E697469AC
:1019C000616C697A690000006E672E2E2E2E2E2E15
:1019D00000000000540000208805002021B10268AA
:1019E00042F00102026004E002684FF6FE731A4002
:1019F0000260704701684FF6FE72114001600021DD
:101A0000016041608160C1604B49884208D14A4908
:101A10000839496841F00F01474A083A51608AE0A5
:101A200045491431884208D143490839496841F091
:101A3000F001414A083A51607DE03F49283188422F
:101A400008D13D490839496841F470613A4A083A79
:101A5000516070E038493C31884208D13649083934
:101A6000496841F47041344A083A516063E03249B0
:101A70005031884208D130490839496841F4702111
:101A80002D4A083A516056E02B496431884208D10A
:101A900029490839496841F47001274A083A5160D8
:101AA00049E025497831884208D1234908394968F5
:101AB00041F07061204A083A51603CE01F49884279
:101AC00006D1011F096841F00F01021F116032E0C9
:101AD0001A491431884208D11849091F096841F090
:101AE000F001164A121F116025E01449283188427E
:101AF00008D11249091F096841F470610F4A121F89
:101B0000116018E00D493C31884208D10B49091F8A
:101B1000096841F47041094A121F11600BE007493E
:101B20005031884207D10549091F096841F47021E5
:101B3000024A121F11607047080002400804024068
:101B40000146486880B2704710B50022026847F627
:101B5000F0739A430C6A8B6823430C6923434C69E6
:101B600023438C692343CC6923434C6A23438C6A07
:101B700023431A430260CB6843600B6883604B6861
:101B8000C36010BD416070477047000010B5002071
:101B90000749087000F04AF80A2007F0EBF8012026
:101BA0000349087000F042F80A2007F0E3F810BD7E
:101BB0006200002070B5054600201A490870042D07
:101BC00003DD281FC5B2012008701648007808B14F
:101BD0002B2000E02A2014490870012D06D0022D88
:101BE0000AD0032D0ED0042D18D111E001210020C0
:101BF00005F080FA044611E00321022005F07AFA8C
:101C000004460BE00521042005F074FA044605E0C3
:101C10000721062005F06EFA044600BF00BF2046EB
:101C200070BD0000620000206300002010B5354840
:101C3000007808B12B2000E02A203349087000F01A
:101C400071FAD6220421082005F000FBD6220421D7
:101C5000092005F0FBFAD62204210A2005F0F6FA45
:101C6000D62204210B2005F0F1FA022220211420B3
:101C700005F0ECFA02222021152005F0E7FA0222F5
:101C80002021162005F0E2FA02222021172005F07B
:101C9000DDFA19220021102005F0D8FA19220021BE
:101CA000112005F0D3FA19220021122005F0CEFAF6
:101CB00019220021132005F0C9FA0022114619202B
:101CC00005F0C4FA0D22C2211B2005F0BFFA002244
:101CD00090211E2005F0BAFA002290211F2005F065
:101CE000B5FA00229021202005F0B0FA00229021C0
:101CF000212005F0ABFA81221C211A2005F0A6FA5A
:101D000010BD0000620000206300002051B182007D
:101D1000A2F1C042126842F001038200A2F1C04267
:101D2000136009E08200A2F1C0421268034B1A401E
:101D30008300A3F1C0431A6070470000FEFF0F004C
:101D4000D0E901121143C26811430269114342698B
:101D5000114382691143C2691143026A1143426A05
:101D60001143826A1143C26A1143026B1143026834
:101D70009200A2F1C0421160816808290BD101686C
:101D80008900A1F1C041096841F040020168890061
:101D9000A1F1C0410A60416B0968426B526841EA97
:101DA0000211426B926841EA0221426B928941EA38
:101DB0000241426B128A41EA0251426B127D41EAB2
:101DC0000261426B926911430268521C9200A2F1B7
:101DD000C0421160C16AB1F5804F1BD1816B0968A7
:101DE000826B526841EA0211826B926841EA0221D9
:101DF000826B128A41EA0251826B127D41EA0261D2
:101E0000826B9269114302689200A2F1C042C2F84B
:101E1000041107E06FF0704201688900A1F1C04130
:101E2000C1F8042170472DE9F04102460025002643
:101E3000002000230024002791F803C00CF00F05B8
:101E400091F803C00CF0100CBCF1000F03D091F816
:101E500002C04CEA050591F800C0BCF1000F31D07A
:101E6000146800202BE04FF0010C0CFA00F3B1F8DD
:101E700000C00CEA03069E4220D183004FF00F0CF5
:101E80000CFA03F7BC4305FA03FC4CEA040491F88E
:101E900003C0BCF1280F06D14FF0010C0CFA00FC76
:101EA000C2F814C00AE091F803C0BCF1480F05D194
:101EB0004FF0010C0CFA00FCC2F810C0401C0828BE
:101EC000D1D31460B1F800C0BCF1FF0F34DD546809
:101ED00000202EE000F1080C4FF0010808FA0CF386
:101EE000B1F800C00CEA03069E4221D183004FF0F6
:101EF0000F0C0CFA03F7BC4305FA03FC4CEA04048C
:101F000091F803C0BCF1280F05D100F1080C08FAC4
:101F10000CF8C2F8148091F803C0BCF1480F07D147
:101F200000F1080C4FF0010808FA0CF8C2F8108014
:101F3000401C0828CED35460BDE8F0810246002042
:101F400093680B400BB1012000E000207047416115
:101F500070470161704700001CB5FFF717FE00F0E5
:101F600053FF00F0CBF91BE015A010210B46C8224F
:101F7000CDE900105A211E2004F026FE42F2107016
:101F800006F0F8FE12A010210B46C822CDE9001081
:101F90005A211E2004F018FE42F2107006F0EAFEEC
:101FA00000F020F80028DFD14FF6FF7000F058FD58
:101FB00004F0BAFE4FF47840094908801CBD0000C7
:101FC00041544B2D48433035204572726F722100C9
:101FD000506C6561736520436865636B2121210046
:101FE0003A000020F8B50A2401260121142004F04B
:101FF000F7FF1020ADF8000048208DF80300032003
:102000008DF8020069462A48FFF70DFF1020ADF851
:1020100000008DF8030003208DF802006946254872
:10202000FFF701FF10212348FFF793FF4FF41650ED
:1020300006F0C8FC32E001201F4908600A2006F0C3
:1020400099FE1EA006F052FF00201E49C1F8900123
:1020500000250AE01C48008800F4004000B106E0BA
:10206000052006F087FE681CC5B20A2DF2DB00BF12
:102070001548008800F4004080B11348067800201D
:1020800011490880042E09D1104800784F2805D145
:102090000E4840784B2801D1002604E02000A4F12E
:1020A0000101CCB2C7D100BF04B900260020F8BDA1
:1020B00000080140001001409001224241540D0AE5
:1020C0000000000000002242600000209006002076
:1020D00000BFFEE700B5FFF701FC0F48006820F0E5
:1020E00070400D490860081F006840F04050091F0B
:1020F0000860002009490860FFF7F0FB012008494B
:10210000C1F89801FFF7EAFB00200449091F0860A5
:10211000FFF7E4FB00BD0000040C01409C8121425C
:102120000080214208B50121082004F059FFC02099
:10213000ADF8000010208DF8030003208DF8020098
:1021400069460448FFF76FFEC0210248FFF701FF10
:1021500008BD0000000C014010B50446104800689E
:1021600020F070400E490860081F006840F00040F1
:10217000091F0860002200230DE05006020E0948E6
:102180000068012802D142F0010200E000BFFFF721
:1021900093FB581CC3B2082BEFDB104610BD0000A8
:1021A000040C01401C81214200B50246124800681F
:1021B00020F0704010490860081F006840F040504F
:1021C000091F086000200D490860002311E002F09B
:1021D000800020B101200949091D086003E00020AA
:1021E0000649091D0860FFF767FB5006020E581CE0
:1021F000C3B2082BEBDB00BD040C014098812142E7
:1022000000B51048006820F070400E490860081FB3
:10221000006840F04050091F086001200A4908602A
:102220000A49C1F89801FFF759FB002006490860E8
:10223000FFF754FBFFF752FB00200449C1F8980157
:1022400000BD0000040C01409C812142008021421D
:1022500000B50E48006820F070400C490860081F67
:10226000006840F04050091F0860012008490860DC
:1022700000200849C1F89C01FFF730FB0120044908
:10228000091D0860FFF72AFB00BD0000040C014097
:10229000988121420080214200B500221448006844
:1022A00020F0704012490860081F006840F00040AC
:1022B000091F086001200F490860FFF70FFB01208C
:1022C0000D49C1F89801FFF709FB07E0501CC2B2A5
:1022D000FA2A03DDFFF7BCFF012000BD0548803866
:1022E00000680028F2D10349091F086000BFF4E725
:1022F000040C01409C8121420080214208B501214B
:10230000442004F06DFE1820ADF8000048208DF840
:10231000030069460648FFF786FD0120ADF800007E
:1023200028208DF8030069460248FFF77CFD08BDB0
:10233000001801400008014010B5044614B1012006
:10234000234908702248007858B310212148FFF72C
:10235000F5FD50B108211F48FFF7F0FD28B101211C
:102360001D48FFF7EBFD01281BD10A2006F002FDF6
:1023700000201749087010211648FFF7DFFD08B943
:10238000012010BD08211348FFF7D8FD08B902202D
:10239000F7E701211048FFF7D1FD012815D10320EF
:1023A000EFE710210B48FFF7C9FD01280DD10821E7
:1023B0000848FFF7C3FD012807D101210648FFF7B0
:1023C000BDFD10B90120024908700020D9E70000C6
:1023D0005000002000180140000801401CB50446D0
:1023E0002EA010211823C822CDE9001032210A2086
:1023F00004F0EAFB30A010211823C822CDE9001018
:1024000064210A2004F0E0FB31A010211823C82227
:10241000CDE9001096210A2004F0D6FB012C04D04F
:10242000022C0DD0032C21D115E02DA018210B4634
:10243000C822CDE900101146502004F0C5FB20E071
:102440002BA018210B46C822CDE9001011465020C0
:1024500004F0BAFB15E02AA018210B46C822CDE9EA
:1024600000101146502004F0AFFB0AE028A0102114
:102470001823C822CDE900101146502004F0A4FB17
:1024800000BF00BF27A010211823C822CDE90010EB
:10249000FA210A2004F098FB1CBD0000507574203E
:1024A00048616E64204F6E2053656E73696E6720BD
:1024B000417265610000000050524553204B3020AE
:1024C000746F2047657420526573756C740000004A
:1024D0004A7564676520526573756C743A20000014
:1024E000526F636B2020202020202020000000005D
:1024F00053636973736F7273202020200000000003
:1025000050617065722020202020202000000000F3
:1025100043757272656E74204E6F204765737475D3
:102520007265000050524553204B3220746F204595
:10253000786974001CB514A018210B46C822CDE997
:10254000001046213C2004F03FFB12A018210B464E
:10255000C822CDE9001078211E2004F035FB10A020
:1025600018210B46C822CDE90010B4211E2004F02A
:102570002BFB10A018210B46C822CDE90010F0213A
:102580001E2004F021FB1CBD4D6F7261204D6F6455
:10259000650000004D4F44452053454C45435400D1
:1025A00050524553204B3020544F20547261696E75
:1025B0000000000050524553204B3120544F204A18
:1025C000756467650000000010B586B0044626A05B
:1025D00010211823C822CDE9001014211E2004F078
:1025E000F3FA27A010211823C822CDE900103221C8
:1025F0001E2004F0E9FA27A010211823C822CDE9F3
:10260000001050211E2004F0DFFA27A0102118230B
:10261000C822CDE900106E211E2004F0D5FA27A0B3
:1026200010211823C822CDE900108C211E2004F0AF
:10263000CBFA224625A103A8FDF75EFE03A81021D0
:102640001823C822CDE900108C21084604F0BCFAFA
:102650001FA00C211823C822CDE90010AA211E209A
:1026600004F0B2FA06B010BD57656C636F6D65205B
:10267000746F20547261696E204D6F6465000000B4
:102680004D4F4445303A526F636B20547261696E0E
:10269000000000004D4F4445313A53636973736F36
:1026A0007220547261696E004D4F4445323A506158
:1026B00070657220547261696E0000004375727219
:1026C000656E74204D6F64653A000000256400005B
:1026D00050524553204B3020746F205374617274F4
:1026E00020547261696E00001CB5044639A01021A7
:1026F0001823C822CDE9001032210A2004F064FA20
:102700003BA010211823C822CDE9001064210A2023
:1027100004F05AFA3CA010211823C822CDE9001079
:1027200096210A2004F050FA062C3BD2DFE804F090
:102730003A030E19242F38A018210B46C822CDE9E0
:1027400000101146502004F03FFA36E034A0182162
:102750000B46C822CDE900101146502004F034FA8F
:102760002BE031A018210B46C822CDE900101146FC
:10277000502004F029FA20E02DA018210B46C82291
:10278000CDE900101146502004F01EFA15E02AA0F1
:1027900018210B46C822CDE900101146502004F044
:1027A00013FA0AE026A010211823C822CDE9001050
:1027B0001146502004F008FA00BF00BF25A01021E8
:1027C0001823C822CDE90010FA210A2004F0FCF9F0
:1027D0001CBD00005075742048616E64204F6E204F
:1027E00053656E73696E6720417265610000000079
:1027F00050524553204B3020746F2047657420524F
:102800006573756C740000004A75646765205265D5
:1028100073756C743A2000004F6E652020202000F4
:1028200054776F20202020005468726565202000B6
:10283000466F7572202020004669766520202000B2
:1028400043757272656E74204E6F204765737475A0
:102850007265000050524553204B3220746F204562
:10286000786974001CB514A018210B46C822CDE964
:10287000001046213C2004F0A7F912A018210B46B5
:10288000C822CDE9001078211E2004F09DF910A087
:1028900018210B46C822CDE90010B4211E2004F0F7
:1028A00093F910A018210B46C822CDE90010F021A1
:1028B0001E2004F089F91CBD526F77696E67204DA8
:1028C0006F6465004D4F44452053454C45435400CB
:1028D00050524553204B3020544F20547261696E42
:1028E0000000000050524553204B3120544F204AE5
:1028F000756467650000000010B586B0044630A01E
:1029000010211823C822CDE9001014211E2004F044
:102910005BF931A010211823C822CDE90010322123
:102920001E2004F051F930A010211823C822CDE94F
:10293000001050211E2004F047F92FA01021182369
:10294000C822CDE900106E211E2004F03DF92FA011
:1029500010211823C822CDE900108C211E2004F07C
:1029600033F92FA010211823C822CDE90010AA2185
:102970001E2004F029F92FA010211823C822CDE928
:10298000001011461E2004F01FF922462DA103A8B5
:10299000FDF7B2FC03A810211823C822CDE90010CE
:1029A00011468C2004F010F927A00C211823C8220E
:1029B000CDE90010E6211E2004F006F906B010BD96
:1029C00057656C636F6D6520746F20547261696E1A
:1029D000204D6F64650000004D4F4445313A5472FC
:1029E00061696E204F6E65004D4F4445323A547216
:1029F00061696E2054776F004D4F4445333A5472ED
:102A000061696E2054687265650000004D4F444551
:102A1000343A547261696E20466F7572000000008E
:102A20004D4F4445353A547261696E20466976656A
:102A30000000000043757272656E74204D6F64650E
:102A40003A0000002564000050524553204B3020CE
:102A5000746F20537461727420547261696E000047
:102A600070B5044600261748058840884543154838
:102A7000808846F60401884216D1124880790128E0
:102A800012D100200F4988712A2048812B2088818B
:102A90000021084603F030FF01200A4988712B20ED
:102AA00048812A20888103E00021084603F024FFA2
:102AB00004F028F9002602E003480480761CAE42A8
:102AC000FAD370BDC00200200008006C10B50446A7
:102AD000002C66D16C498871F02008804FF4A070FA
:102AE00048800846808849F2413188420BD06648C8
:102AF000808846F60401884205D06348808845F204
:102B0000103188421AD12C205F4908812A2048813F
:102B10002B2088810846808846F60401884205D02B
:102B20005948808845F21031884206D14FF4A07090
:102B3000554908804FF4F0704880A1E052488088E1
:102B400045F21051884210D14FF430504E4908815F
:102B50004FF4285048814FF42C5088814FF4F07086
:102B600008804FF4487048808AE04748808841F6E2
:102B7000631188420DD12C20434908812B204881C4
:102B80002A2088814FF4F07008804FF44870488004
:102B900076E022203C49088120204881212088813C
:102BA0006EE00120384988714FF4A0700880F02051
:102BB00048800846808849F24131884205D0324831
:102BC000808845F21031884207D12C202E49088197
:102BD0002A2048812B2088813FE02B48808846F6B8
:102BE0000401884207D12C20274908812B204881E5
:102BF0002A20888131E02448808845F2105188429B
:102C000010D14FF43050204908814FF428504881AA
:102C10004FF42C5088814FF4487008804FF4F070C6
:102C200048801AE01848808841F6631188420DD127
:102C30002C20154908812A2048812B2088814FF4B7
:102C4000487008804FF4F070488006E022200E495A
:102C5000088121204881202088810B48808846F601
:102C60000401884205D00848808845F21031884226
:102C700006D14FF4F070044908804FF4A0704880EA
:102C8000002003F0C3FC10BDC002002030B5034695
:102C90000C4615465A48808849F24131884205D091
:102CA0005748808845F21031884214D154494889E8
:102CB00004F022F8181204F019F8D8B204F016F84B
:102CC0004F49888904F018F8201204F00FF8E0B298
:102CD00004F00CF88CE04A48808845F21051884294
:102CE00020D14749488904F007F8181203F0FEFF85
:102CF00043494989491C88B203F0FEFFD8B203F06A
:102D0000F5FF3F49888903F0F7FF201203F0EEFF3B
:102D10003B498989491C88B203F0EEFFE0B203F019
:102D2000E5FF65E03648808841F66311884228D186
:102D30003348807920B932480088401EC01A83B2D7
:102D40002F49488903F0D8FF181203F0CFFFD8B2FB
:102D500003F0CCFF181203F0C9FFD8B203F0C6FF8E
:102D60002749888903F0C8FF201203F0BFFFE0B2B3
:102D700003F0BCFF201203F0B9FFE0B203F0B6FF8E
:102D800036E01F48808846F6040188421DD11C4861
:102D90008079012804D11A480088401EC01A83B2E5
:102DA0001749488903F0A8FF181203F09FFFD8B213
:102DB00003F09CFF1249888903F09EFF201203F064
:102DC00095FFE0B203F092FF12E00D4880790128F0
:102DD00004D10B480088401EC01A83B208494889B4
:102DE000194603F099FF06498889214603F094FFAC
:102DF0000348008903490880881C058030BD000015
:102E0000C0020020FE07006C00B59FB0012108023F
:102E100004F0B6F801214FF4B47004F0E1F8012099
:102E2000ADF8780010208DF87B0003208DF87A0033
:102E30001EA9FE48FEF7F7FF4CF23370ADF878009C
:102E400018208DF87B0003208DF87A001EA9F84821
:102E5000FEF7E9FF4FF68070ADF8780018208DF886
:102E60007B0003208DF87A001EA9F248FEF7DBFFF5
:102E700041F20100ADF8780018208DF87B000320A6
:102E80008DF87A001EA9EC48FEF7CDFF01200890CE
:102E9000002009900F200A9000200B900C900D90BC
:102EA0000E90019002900320039000200490059062
:102EB0000690079006200F9000201090119010208F
:102EC00012900020139015901490169017904FF4C4
:102ED00080501890002019904FF480401A900020E4
:102EE0001B9008A81C9001A81D900FA8FEF728FFB2
:102EF00001210620FEF70AFF322005F03BFF0020EB
:102F000003F04EFBCD49888008468088FF280ADB05
:102F1000084680884FF6FF71884204D0C7488088F1
:102F2000B0F5134F7ED1D32003F0E6FE03F02EFB65
:102F3000C249888003F02AFBC049888003F026FB41
:102F4000BE498880084680884FF6FF7101EA00205C
:102F5000BA49888003F01AFBB84989880843B74901
:102F600088800846808849F2413188425AD0BF2083
:102F700003F0C2FE03F00AFBB049888003F006FBB1
:102F8000AE49888003F002FBAC49888003F0FEFA6A
:102F9000AA498880084680884FF6FF7101EA002020
:102FA000A649888003F0F2FAA44989880843A34916
:102FB00088800846808846F6040188427AD0D4206A
:102FC00003F09AFE03F0E2FA9C49888003F0DEFAEF
:102FD0009A49888003F0DAFA984988800846808800
:102FE0004FF6FF7101EA00209449888003F0CEFA81
:102FF000924989880843914988800846808845F22B
:103000001031884256D04FF45A4003F075FE03F059
:10301000BDFA8A4988804FF45B4003F06DFE03F0EF
:10302000B5FA00E046E085498880084680884FF67A
:10303000FF7101EA0020814988804FF45C4003F071
:103040005BFE03F0A3FA7D49898808437B498880A9
:1030500008468088B0F5004F02D145F210508880B4
:103060007648808845F21051884223D0A12003F091
:1030700043FE03F08BFA7149888003F087FA6F49A9
:103080008880084680884FF6FF7101EA00206B496E
:10309000888003F07BFA69498988084367498880FA
:1030A0000846808845F26171884203D141F6631079
:1030B000624988806148818861A0FDF711F95F4805
:1030C000808849F2413188427ED1CF2003F014FE3E
:1030D000002003F00BFEC12003F008FE302003F0B7
:1030E00005FEED2003F008FE642003F0FFFD032041
:1030F00003F0FCFD122003F0F9FD812003F0F6FD42
:10310000E82003F0F9FD852003F0F0FD102003F026
:10311000EDFD7A2003F0EAFDCB2003F0EDFD392030
:1031200003F0E4FD2C2003F0E1FD002003F0DEFDC0
:10313000342003F0DBFD022003F0D8FDF72003F07C
:10314000DBFD202003F0D2FDEA2003F0D5FD0020B6
:1031500003F0CCFD002003F0C9FDC02003F0CCFD3E
:103160001B2003F0C3FDC12003F0C6FD012003F0C6
:10317000BDFDC52003F0C0FD302003F0B7FD3020B9
:1031800003F0B4FDC72003F0B7FDB72003F0AEFD98
:10319000362003F0B1FD482003F0A8FD3A2003F0EB
:1031A000ABFD552003F0A2FDB12003F0A5FD0020EA
:1031B00003F09CFD1A2003F099FDB62003F09CFD5E
:1031C0000A2003F093FD00E0AAE0A22003F08EFDA8
:1031D000F22003F091FD002003F088FD262003F08B
:1031E0008BFD012003F082FDE02003F085FD0F2020
:1031F00003F07CFD2A2003F079FD282003F076FD02
:10320000082003F073FD0E2003F070FD082003F08A
:103210006DFD542003F06AFDA92003F067FD4320F3
:1032200003F064FD0A2003F061FD11E0000C014091
:10323000001401400018014000200140C00200209D
:10324000204C43442049443A25780D0A00000000F0
:103250000F2003F04BFD002003F048FD002003F099
:1032600045FD002003F042FD002003F03FFDE1207A
:1032700003F042FD002003F039FD152003F036FD78
:10328000172003F033FD072003F030FD112003F079
:103290002DFD062003F02AFD2B2003F027FD5620EC
:1032A00003F024FD3C2003F021FD052003F01EFD6A
:1032B000102003F01BFD0F2003F018FD3F2003F04A
:1032C00015FD3F2003F012FD0F2003F00FFD2B2012
:1032D00003F012FD002003F009FD002003F006FDBD
:1032E000012003F003FD3F2003F000FD2A2003F03E
:1032F00003FD002003F0FAFC002003F0F7FC00209F
:1033000003F0F4FCEF2003F0F1FC112003F0F4FCD7
:10331000782005F02FFD292003F0EEFC03F01AB908
:10332000FE48808846F6040188427CD1112003F0D3
:10333000E3FC142005F01EFDD02003F0DDFC072087
:1033400003F0D4FC422003F0D1FC1D2003F0CEFC9E
:10335000D12003F0D1FC002003F0C8FC1A2003F0B8
:10336000C5FC092003F0C2FCD22003F0C5FC0120FB
:1033700003F0BCFC222003F0B9FCC02003F0BCFC2D
:10338000102003F0B3FC3B2003F0B0FC002003F05E
:10339000ADFC022003F0AAFC112003F0A7FCC5201D
:1033A00003F0AAFC032003F0A1FCC82003F0A4FC56
:1033B000002003F09BFC252003F098FC212003F063
:1033C00095FC052003F092FC002003F08FFC0A20FE
:1033D00003F08CFC652003F089FC252003F086FCBB
:1033E000772003F083FC502003F080FC0F2003F0D3
:1033F0007DFC002003F07AFCF82003F07DFC012026
:1034000003F074FCFE2003F077FC002003F06EFC58
:10341000022003F06BFC202003F06EFC362003F04A
:103420006BFC082000E02CE003F060FC3A2003F085
:1034300063FC552003F05AFC2B2003F05DFC0020B8
:1034400003F054FC002003F051FC012003F04EFC7B
:103450003F2003F04BFC2A2003F04EFC002003F039
:1034600045FC002003F042FC012003F03FFCDF207C
:1034700003F03CFC782005F07DFC292003F03CFCA7
:103480004CE7A648808845F21031884240F07C879E
:10349000ED2003F031FC012003F028FCFE2003F0B6
:1034A00025FCEE2003F028FCDE2003F01FFC212089
:1034B00003F01CFCF12003F01FFC012003F016FCBC
:1034C000DF2003F019FC102003F010FCC42003F0EF
:1034D00013FC8F2003F00AFCC62003F00DFC002033
:1034E00003F004FCE22003F001FCE22003F0FEFB09
:1034F000E22003F0FBFBBF2003F0FEFBAA2003F059
:10350000F5FBB02003F0F8FB0D2003F0EFFB0020EB
:1035100003F0ECFB0D2003F0E9FB002003F0E6FBD9
:10352000112003F0E3FB002003F0E0FB192003F07F
:10353000DDFB002003F0DAFB212003F0D7FB0020A5
:1035400003F0D4FB2D2003F0D1FB002003F0CEFBD1
:103550003D2003F0CBFB002003F0C8FB5D2003F00F
:10356000C5FB002003F0C2FB5D2003F0BFFB002081
:1035700003F0BCFBB12003F0BFFB802003F0B6FBDF
:10358000002003F0B3FB8B2003F0B0FB002003F01E
:10359000ADFB962003F0AAFB002003F0A7FBB220AE
:1035A00003F0AAFB002003F0A1FB002003F09EFB28
:1035B000022003F09BFB002003F098FB032003F0A4
:1035C00095FB002003F092FBB32003F095FB002055
:1035D00003F08CFB002003F089FB002003F086FB46
:1035E000002003F083FB002003F080FB002003F0A9
:1035F0007DFB002003F07AFB002003F077FB002026
:1036000003F074FB002003F071FB002003F06EFB5D
:10361000002003F06BFB002003F068FB002003F0A8
:1036200065FB002003F062FB002003F05FFB00203D
:1036300003F05CFB002003F059FB002003F056FB75
:10364000002003F053FB002003F050FB002003F0A8
:103650004DFB002003F04AFB002003F047FBB420A1
:1036600003F04AFB8B2003F041FB002003F03EFBFC
:10367000962003F03BFB002003F038FBA12003F071
:1036800035FB002003F032FBB52003F035FB0220B0
:1036900003F02CFB002003F029FB032003F026FBA2
:1036A000002003F023FB042003F020FB002003F0A4
:1036B0001DFBB62003F020FB002003F017FB0020C9
:1036C00003F014FBB72003F017FB002003F00EFB00
:1036D000002003F00BFB3F2003F008FB002003F069
:1036E00005FB5E2003F002FB002003F0FFFA6420DC
:1036F00003F0FCFA002003F0F9FA8C2003F0F6FA4C
:10370000002003F0F3FAAC2003F0F0FA002003F0FD
:10371000EDFADC2003F0EAFA002001E0C00200200C
:1037200003F0E4FA702003F0E1FA002003F0DEFA7F
:10373000902003F0DBFA002003F0D8FAEB2003F02E
:10374000D5FA002003F0D2FADC2003F0CFFA0020F3
:1037500003F0CCFAB82003F0CFFA002003F0C6FA49
:10376000002003F0C3FA002003F0C0FA002003F0A9
:10377000BDFA002003F0BAFA002003F0B7FA0020E7
:1037800003F0B4FA002003F0B1FABA2003F0B4FA5F
:10379000242003F0ABFA002003F0A8FA002003F085
:1037A000A5FA002003F0A2FAC12003F0A5FA202018
:1037B00003F09CFA002003F099FA542003F096FAE3
:1037C000002003F093FAFF2003F090FA002003F0AA
:1037D0008DFAC22003F090FA0A2003F087FA002045
:1037E00003F084FA042003F081FA002003F07EFA4B
:1037F000C32003F081FA3C2003F078FA002003F0A4
:1038000075FA3A2003F072FA002003F06FFA3920BB
:1038100003F06CFA002003F069FA372003F066FA2F
:10382000002003F063FA3C2003F060FA002003F06C
:103830005DFA362003F05AFA002003F057FA3220DE
:1038400003F054FA002003F051FA2F2003F04EFA4F
:10385000002003F04BFA2C2003F048FA002003F07C
:1038600045FA292003F042FA002003F03FFA26200F
:1038700003F03CFA002003F039FA242003F036FA72
:10388000002003F033FA242003F030FA002003F084
:103890002DFA232003F02AFA002003F027FA3C2017
:1038A00003F024FA002003F021FA362003F01EFA78
:1038B000002003F01BFA322003F018FA002003F076
:1038C00015FA2F2003F012FA002003F00FFA2C2033
:1038D00003F00CFA002003F009FA292003F006FA9D
:1038E000002003F003FA262003F000FA002003F082
:1038F000FDF9242003F0FAF9002003F0F7F9242061
:1039000003F0F4F9002003F0F1F9232003F0EEF9BD
:10391000002003F0EBF9C42003F0EEF9622003F07D
:10392000E5F9002003F0E2F9052003F0DFF90020BB
:1039300003F0DCF9842003F0D9F9002003F0D6F974
:10394000F02003F0D3F9002003F0D0F9182003F0A1
:10395000CDF9002003F0CAF9A42003F0C7F9002034
:1039600003F0C4F9182003F0C1F9002003F0BEF9F8
:10397000502003F0BBF9002003F0B8F90C2003F04D
:10398000B5F9002003F0B2F9172003F0AFF90020D9
:1039900003F0ACF9952003F0A9F9002003F0A6F993
:1039A000F32003F0A3F9002003F0A0F9E62003F0D0
:1039B0009DF9002003F09AF9C52003F09DF932200B
:1039C00003F094F9002003F091F9442003F08EF9FC
:1039D000002003F08BF9652003F088F9002003F044
:1039E00085F9762003F082F9002003F07FF9882022
:1039F00003F07CF9002003F079F9C62003F07CF98C
:103A0000202003F073F9002003F070F9172003F071
:103A10006DF9002003F06AF9012003F067F9002036
:103A200003F064F9C72003F067F9002003F05EF9A2
:103A3000002003F05BF9002003F058F9002003F0A8
:103A400055F9C82003F058F9002003F04FF9002081
:103A500003F04CF9002003F049F9002003F046F987
:103A6000C92003F049F9002003F040F9002003F0D9
:103A70003DF9002003F03AF9002003F037F9002067
:103A800003F034F9002003F031F9002003F02EF99F
:103A9000002003F02BF9002003F028F9002003F0A8
:103AA00025F9002003F022F9002003F01FF900207F
:103AB00003F01CF9002003F019F9002003F016F9B7
:103AC000002003F013F9E02003F016F9162003F0AC
:103AD0000DF9002003F00AF91C2003F007F900207B
:103AE00003F004F9212003F001F9002003F0FEF8AF
:103AF000362003F0FBF8002003F0F8F8462003F02E
:103B0000F5F8002003F0F2F8522003F0EFF800205F
:103B100003F0ECF8642003F0E9F8002003F0E6F885
:103B20007A2003F0E3F8002003F0E0F88B2003F0A4
:103B3000DDF8002003F0DAF8992003F0D7F8002030
:103B400003F0D4F8A82003F0D1F8002003F0CEF859
:103B5000B92003F0CBF8002003F0C8F8C42003F02C
:103B6000C5F8002003F0C2F8CA2003F0BFF8002017
:103B700003F0BCF8D22003F0B9F8002003F0B6F847
:103B8000D92003F0B3F8002003F0B0F8E02003F0F0
:103B9000ADF8002003F0AAF8F32003F0A7F8002006
:103BA00003F0A4F8E12003F0A7F8162003F09EF834
:103BB000002003F09BF81C2003F098F8002003F08D
:103BC00095F8222003F092F8002003F08FF83620B9
:103BD00003F08CF8002003F089F8452003F086F804
:103BE000002003F083F8522003F080F8002003F057
:103BF0007DF8642003F07AF8002003F077F87A204B
:103C000003F074F8002003F071F88B2003F06EF8D5
:103C1000002003F06BF8992003F068F8002003F00F
:103C200065F8A82003F062F8002003F05FF8B920DF
:103C300003F05CF8002003F059F8C42003F056F8B4
:103C4000002003F053F8CA2003F050F8002003F0DE
:103C50004DF8D22003F04AF8002003F047F8D820AE
:103C600003F044F8002003F041F8E02003F03EF8B0
:103C7000002003F03BF8F32003F038F8002003F0B5
:103C800035F8E22003F038F8052003F02FF8002083
:103C900003F02CF80B2003F029F8002003F026F89D
:103CA0001B2003F023F8002003F020F8342003F059
:103CB0001DF8002003F01AF8442003F017F8002044
:103CC00003F014F84F2003F011F8002003F00EF871
:103CD000612003F00BF8002003F008F8792003F0CE
:103CE00005F8002003F002F8882002F0FFFF002012
:103CF00002F0FCFF972002F0F9FF002002F0F6FF2F
:103D0000A62002F0F3FF002002F0F0FFB72002F03F
:103D1000EDFF002002F0EAFFC22002F0E7FF0020E2
:103D200002F0E4FFC72002F0E1FF002002F0DEFF16
:103D3000D12002F0DBFF002002F0D8FFD62002F0F5
:103D4000D5FF002002F0D2FFDD2002F0CFFF0020DF
:103D500002F0CCFFF32002F0C9FF002002F0C6FF02
:103D6000E32002F0C9FF052002F0C0FF002002F0AE
:103D7000BDFF0A2002F0BAFF002002F0B7FF1C20AE
:103D800002F0B4FF002002F0B1FF332002F0AEFFDA
:103D9000002002F0ABFF442002F0A8FF002002F058
:103DA000A5FF502002F0A2FF002002F09FFF62203A
:103DB00002F09CFF002002F099FF782002F096FFAD
:103DC000002002F093FF882002F090FF002002F014
:103DD0008DFF972002F08AFF002002F087FFA620C7
:103DE00002F084FF002002F081FFB72002F07EFF86
:103DF000002002F07BFFC22002F078FF002002F0DA
:103E000075FFC72002F072FF002002F06FFFD12083
:103E100002F06CFF002002F069FFD52002F066FF7F
:103E2000002002F063FFDD2002F060FF002002F0BE
:103E30005DFFF32002F05AFF002002F057FFE4205C
:103E400002F05AFF012002F051FF002002F04EFF65
:103E5000012002F04BFF002002F048FF022002F098
:103E600045FF002002F042FF2A2002F03FFF002021
:103E700002F03CFF3C2002F039FF002002F036FF48
:103E80004B2002F033FF002002F030FF5D2002F0F3
:103E90002DFF002002F02AFF742002F027FF0020EF
:103EA00002F024FF842002F021FF002002F01EFF18
:103EB000932002F01BFF002002F018FFA22002F066
:103EC00015FF002002F012FFB32002F00FFF0020C8
:103ED00002F00CFFBE2002F009FF002002F006FFF6
:103EE000C42002F003FF002002F000FFCD2002F00A
:103EF000FDFE002002F0FAFED32002F0F7FE0020C3
:103F000002F0F4FEDD2002F0F1FE002002F0EEFEF1
:103F1000F32002F0EBFE002002F0E8FEE52002F0C4
:103F2000EBFE002002F0E2FE002002F0DFFE0020A7
:103F300002F0DCFE002002F0D9FE022002F0D6FEE4
:103F4000002002F0D3FE292002F0D0FE002002F073
:103F5000CDFE3C2002F0CAFE002002F0C7FE4B203E
:103F600002F0C4FE002002F0C1FE5D2002F0BEFEA1
:103F7000002002F0BBFE742002F0B8FE002002F028
:103F8000B5FE842002F0B2FE002002F0AFFE9320C6
:103F900002F0ACFE002002F0A9FEA22002F0A6FE74
:103FA000002002F0A3FEB32002F0A0FE002002F0E9
:103FB0009DFEBE2002F09AFE002002F097FEC42073
:103FC00002F094FE002002F091FECD2002F08EFE61
:103FD000002002F08BFED32002F088FE002002F0C9
:103FE00085FEDC2002F082FE002002F07FFEF3203E
:103FF00002F07CFE002002F079FEE62002F07CFE5A
:10400000112002F073FE002002F070FE342002F056
:104010006DFE002002F06AFE562002F067FE0020CE
:1040200002F064FE762002F061FE002002F05EFEE7
:10403000772002F05BFE002002F058FE662002F0BE
:1040400055FE002002F052FE882002F04FFE0020B4
:1040500002F04CFE992002F049FE002002F046FEDC
:10406000BB2002F043FE002002F040FE992002F047
:104070003DFE002002F03AFE662002F037FE0020EE
:1040800002F034FE552002F031FE002002F02EFE38
:10409000552002F02BFE002002F028FE452002F001
:1040A00025FE002002F022FE432002F01FFE002029
:1040B00002F01CFE442002F019FE002002F016FE61
:1040C000E72002F019FE322002F010FE002002F07C
:1040D0000DFE552002F00AFE002002F007FE7620B9
:1040E00002F004FE002002F001FE662002F0FEFD58
:1040F000002002F0FBFD672002F0F8FD002002F036
:10410000F5FD672002F0F2FD002002F0EFFD8720B0
:1041100002F0ECFD002002F0E9FD992002F0E6FD3E
:10412000002002F0E3FDBB2002F0E0FD002002F0E1
:10413000DDFD992002F0DAFD002002F0D7FD7720A6
:1041400002F0D4FD002002F0D1FD442002F0CEFDAB
:10415000002002F0CBFD562002F0C8FD002002F046
:10416000C5FD232002F0C2FD002002F0BFFD332078
:1041700002F0BCFD002002F0B9FD452002F0B6FDC2
:10418000002002F0B3FDE82002F0B6FD002002F0AE
:10419000ADFD002002F0AAFD992002F0A7FD00204D
:1041A00002F0A4FD872002F0A1FD002002F09EFD98
:1041B000882002F09BFD002002F098FD772002F09D
:1041C00095FD002002F092FD662002F08FFD002098
:1041D00002F08CFD882002F089FD002002F086FDAF
:1041E000AA2002F083FD002002F080FDBB2002F037
:1041F0007DFD002002F07AFD992002F077FD00207D
:1042000002F074FD662002F071FD002002F06EFDE8
:10421000552002F06BFD002002F068FD552002F0F1
:1042200065FD002002F062FD442002F05FFD0020E9
:1042300002F05CFD442002F059FD002002F056FD22
:10424000552002F053FD002002F050FDE92002F05D
:1042500053FDAA2002F04AFD002002F047FD002095
:1042600002F044FD002002F041FD002002F044FD78
:10427000AA2002F03BFDCF2002F03EFD002002F01C
:1042800035FD002002F032FD002002F02FFD00205D
:1042900002F02CFD002002F029FD002002F026FD96
:1042A000002002F023FD002002F020FD002002F09B
:1042B0001DFD002002F01AFD002002F017FD002075
:1042C00002F014FD002002F011FD002002F00EFDAE
:1042D000002002F00BFD002002F008FD002002F09B
:1042E00005FDF02002F008FD002002F0FFFC502048
:1042F00002F0FCFC002002F0F9FC002002F0F6FCC9
:10430000002002F0F3FCF32002F0F6FC002002F0A3
:10431000EDFCF92002F0F0FC062002F0E7FC102092
:1043200002F0E4FC292002F0E1FC002002F0DEFCB7
:104330003A2002F0E1FC552002F0D8FC112002F0F6
:10434000DBFC642004F016FD292002F0D5FC3520AA
:1043500002F0D2FC002002F0C9FC512002F0CCFC9B
:10436000FF2002F0C3FC532002F0C6FC2C2002F018
:10437000BDFC552002F0C0FC822002F0B7FC2C20CE
:1043800002F0BAFC02F0E6B8FE48808845F210510F
:1043900088427DD155214FF4704002F0BDFCAA2126
:1043A0004FF2010002F0B8FC52214FF2020002F07D
:1043B000B3FC08214FF2030002F0AEFC01214FF2E2
:1043C000040002F0A9FC0D214FF4304002F0A4FCDF
:1043D0000D214BF2010002F09FFC0D214BF2020077
:1043E00002F09AFC34214FF4364002F095FC34215F
:1043F0004BF2016002F090FC34214BF2026002F0BB
:104400008BFC0D214FF4314002F086FC0D214BF264
:10441000011002F081FC0D214BF2021002F07CFC35
:1044200034214FF4374002F077FC34214BF2017015
:1044300002F072FC34214BF2027002F06DFC00219C
:104440004FF4324002F068FC00214BF2012002F0F0
:1044500063FC00214BF2022002F05EFC24214FF4A9
:10446000384002F059FC24214BF6010002F054FCC4
:1044700024214BF6020002F04FFC01214FF43F4093
:1044800002F04AFC0F214FF4334002F045FC00E0FB
:10449000FDE30F214BF2013002F03EFC0F214BF205
:1044A000023002F039FC34214FF4394002F034FC80
:1044B00034214BF6011002F02FFC34214BF6021090
:1044C00002F02AFC08214FF4354002F025FC0821B7
:1044D0004BF2015002F020FC08214BF2025002F096
:1044E0001BFC03214FF4424002F016FC24214FF440
:1044F0003A4002F011FC24214BF6012002F00CFCA2
:1045000024214BF6022002F007FC00214FF43C402E
:1045100002F002FC78214BF6014002F0FDFB002185
:104520004BF6024002F0F8FB00214FF43D4002F050
:10453000F3FB78214BF6015002F0EEFB00214BF625
:10454000025002F0E9FB00214FF43E4002F0E4FB90
:1045500064214BF6016002F0DFFB00214FF4514073
:1045600002F0DAFB33214DF2011002F0D5FB0021FD
:104570004DF2021002F0D0FB34214DF2031002F094
:10458000CBFB00214DF2041002F0C6FB3A214DF2A4
:10459000051002F0C1FB00214DF2061002F0BCFB39
:1045A0004A214DF2071002F0B7FB00214DF208102E
:1045B00002F0B2FB5C214DF2091002F0ADFB0021CC
:1045C0004DF20A1002F0A8FB81214DF20B1002F00F
:1045D000A3FB00214DF20C1002F09EFBA6214DF230
:1045E0000D1002F099FB00214DF20E1002F094FB29
:1045F000E5214DF20F1002F08FFB01214DF210105A
:1046000002F08AFB13214DF2111002F085FB01210B
:104610004DF2121002F080FB54214DF2131002F003
:104620007BFB01214DF2141002F076FB82214DF24A
:10463000151002F071FB01214DF2161002F06CFB17
:10464000CA214DF2171002F067FB02214DF218103B
:1046500002F062FB00214DF2191002F05DFB022115
:104660004DF21A1002F058FB01214DF21B1002F01E
:1046700053FB02214DF21C1002F04EFB34214DF28F
:104680001D1002F049FB02214DF21E1002F044FB06
:1046900067214DF21F1002F03FFB02214DF2201066
:1046A00002F03AFB84214DF2211002F035FB022189
:1046B0004DF2221002F030FBA4214DF2231002F043
:1046C0002BFB02214DF2241002F026FBB7214DF204
:1046D000251002F021FB02214DF2261002F01CFBF6
:1046E000CF214DF2271002F017FB02214DF22810C6
:1046F00002F012FBDE214DF2291002F00DFB022127
:104700004DF22A1002F008FBF2214DF22B1002F0BC
:1047100003FB02214DF22C1002F0FEFAFE214DF2B5
:104720002D1002F0F9FA03214DF22E1002F0F4FAE6
:1047300010214DF22F1002F0EFFA03214DF230104C
:1047400002F0EAFA33214DF2311002F0E5FA0321CA
:104750004DF2321002F0E0FA6D214DF2331002F00A
:10476000DBFA00214FF4524002F0D6FA33214DF229
:10477000012002F0D1FA00214DF2022002F0CCFA21
:10478000342101E0C00200204DF2032002F0C4FAFF
:1047900000214DF2042002F0BFFA3A214DF205202B
:1047A00002F0BAFA00214DF2062002F0B5FA4A21D1
:1047B0004DF2072002F0B0FA00214DF2082002F07D
:1047C000ABFA5C214DF2092002F0A6FA00214DF26D
:1047D0000A2002F0A1FA81214DF20B2002F09CFA8E
:1047E00000214DF20C2002F097FAA6214DF20D2087
:1047F00002F092FA00214DF20E2002F08DFAE5212E
:104800004DF20F2002F088FA01214DF2102002F043
:1048100083FA13214DF2112002F07EFA01214DF2AC
:10482000122002F079FA54214DF2132002F074FAAA
:1048300001214DF2142002F06FFA82214DF2152071
:1048400002F06AFA01214DF2162002F065FACA213F
:104850004DF2172002F060FA02214DF2182002F00A
:104860005BFA00214DF2192002F056FA02214DF2B6
:104870001A2002F051FA01214DF21B2002F04CFAED
:1048800002214DF21C2002F047FA34214DF21D2086
:1048900002F042FA02214DF21E2002F03DFA672199
:1048A0004DF21F2002F038FA02214DF2202002F0D2
:1048B00033FA84214DF2212002F02EFA02214DF22A
:1048C000222002F029FAA4214DF2232002F024FA3A
:1048D00002214DF2242002F01FFAB7214DF22520CB
:1048E00002F01AFA02214DF2262002F015FACF2129
:1048F0004DF2272002F010FA02214DF2282002F09A
:104900000BFADE214DF2292002F006FA02214DF2C7
:104910002A2002F001FAF2214DF22B2002F0FCF9DC
:1049200002214DF22C2002F0F7F9FE214DF22D204C
:1049300002F0F2F903214DF22E2002F0EDF91021E0
:104940004DF22F2002F0E8F903214DF2302002F061
:10495000E3F933214DF2312002F0DEF903214DF26B
:10496000322002F0D9F96D214DF2332002F0D4F952
:1049700000214FF4534002F0CFF933214DF20130C2
:1049800002F0CAF900214DF2023002F0C5F93421DB
:104990004DF2033002F0C0F900214DF2043002F074
:1049A000BBF93A214DF2053002F0B6F900214DF283
:1049B000063002F0B1F94A214DF2073002F0ACF9AD
:1049C00000214DF2083002F0A7F95C214DF20930C8
:1049D00002F0A2F900214DF20A3002F09DF9812186
:1049E0004DF20B3002F098F900214DF20C3002F03C
:1049F00093F9A6214DF20D3002F08EF900214DF20F
:104A00000E3002F089F9E5214DF20F3002F084F901
:104A100001214DF2103002F07FF913214DF21130D7
:104A200002F07AF901214DF2123002F075F95421A9
:104A30004DF2133002F070F901214DF2143002F002
:104A40006BF982214DF2153002F066F901214DF229
:104A5000163002F061F9CA214DF2173002F05CF90C
:104A600002214DF2183002F057F900214DF21930B1
:104A700002F052F902214DF21A3002F04DF90121F3
:104A80004DF21B3002F048F902214DF21C3002F0C9
:104A900043F934214DF21D3002F03EF902214DF26E
:104AA0001E3002F039F967214DF21F3002F034F95F
:104AB00002214DF2203002F02FF984214DF22130F5
:104AC00002F02AF902214DF2223002F025F9A42148
:104AD0004DF2233002F020F902214DF2243002F091
:104AE0001BF9B7214DF2253002F016F902214DF2E3
:104AF000263002F011F9CF214DF2273002F00CF9E7
:104B000002214DF2283002F007F9DE214DF2293062
:104B100002F002F902214DF22A3002F0FDF8F221F2
:104B20004DF22B3002F0F8F802214DF22C3002F059
:104B3000F3F8FE214DF22D3002F0EEF803214DF294
:104B40002E3002F0E9F810214DF22F3002F0E4F897
:104B500003214DF2303002F0DFF833214DF23130D5
:104B600002F0DAF803214DF2323002F0D5F86D216F
:104B70004DF2333002F0D0F800214FF4544002F0EF
:104B8000CBF833214DF2014002F0C6F800214DF27E
:104B9000024002F0C1F834214DF2034002F0BCF8AB
:104BA00000214DF2044002F0B7F83A214DF20540E1
:104BB00002F0B2F800214DF2064002F0ADF84A21B1
:104BC0004DF2074002F0A8F800214DF2084002F033
:104BD000A3F85C214DF2094002F09EF800214DF24D
:104BE0000A4002F099F881214DF20B4002F094F84E
:104BF00000214DF20C4002F08FF8A6214DF20D403D
:104C000002F08AF800214DF20E4002F085F8E5210D
:104C10004DF20F4002F080F801214DF2104002F0F9
:104C20007BF813214DF2114002F076F801214DF28C
:104C3000124002F071F854214DF2134002F06CF86A
:104C400001214DF2144002F067F882214DF2154027
:104C500002F062F801214DF2164002F05DF8CA211F
:104C60004DF2174002F058F802214DF2184002F0C0
:104C700053F800214DF2194002F04EF802214DF296
:104C80001A4002F049F801214DF21B4000E006E312
:104C900002F042F802214DF21C4002F03DF83421AE
:104CA0004DF21D4002F038F802214DF21E4002F094
:104CB00033F867214DF21F4002F02EF802214DF229
:104CC000204002F029F884214DF2214002F024F81E
:104CD00002214DF2224002F01FF8A4214DF22340A0
:104CE00002F01AF802214DF2244002F015F8B72123
:104CF0004DF2254002F010F802214DF2264002F05C
:104D00000BF8CF214DF2274002F006F802214DF2B8
:104D1000284002F001F8DE214DF2294001F0FCFFAD
:104D200002214DF22A4001F0F7FFF2214DF22B4013
:104D300001F0F2FF02214DF22C4001F0EDFFFE21C7
:104D40004DF22D4001F0E8FF03214DF22E4001F01D
:104D5000E3FF10214DF22F4001F0DEFF03214DF261
:104D6000304001F0D9FF33214DF2314001F0D4FF42
:104D700003214DF2324001F0CFFF6D214DF233405F
:104D800001F0CAFF00214FF4554001F0C5FF332167
:104D90004DF2015001F0C0FF00214DF2025001F030
:104DA000BBFF34214DF2035001F0B6FF00214DF25C
:104DB000045001F0B1FF3A214DF2055001F0ACFF73
:104DC00000214DF2065001F0A7FF4A214DF2075095
:104DD00001F0A2FF00214DF2085001F09DFF5C217F
:104DE0004DF2095001F098FF00214DF20A5001F0F8
:104DF00093FF81214DF20B5001F08EFF00214DF207
:104E00000C5001F089FFA6214DF20D5001F084FFF6
:104E100000214DF20E5001F07FFFE5214DF20F50C1
:104E200001F07AFF01214DF2105001F075FF1321BE
:104E30004DF2115001F070FF01214DF2125001F0BE
:104E40006BFF54214DF2135001F066FF01214DF22A
:104E5000145001F061FF82214DF2155001F05CFF0A
:104E600001214DF2165001F057FFCA214DF21750A3
:104E700001F052FF02214DF2185001F04DFF0021C8
:104E80004DF2195001F048FF02214DF21A5001F085
:104E900043FF01214DF21B5001F03EFF02214DF274
:104EA0001C5001F039FF34214DF21D5001F034FF48
:104EB00002214DF21E5001F02FFF67214DF21F50CD
:104EC00001F02AFF02214DF2205001F025FF84213C
:104ED0004DF2215001F020FF02214DF2225001F04D
:104EE0001BFFA4214DF2235001F016FF02214DF2C9
:104EF000245001F011FFB7214DF2255001F00CFFB5
:104F000002214DF2265001F007FFCF214DF227502C
:104F100001F002FF02214DF2285001F0FDFEDE21DA
:104F20004DF2295001F0F8FE02214DF22A5001F015
:104F3000F3FEF2214DF22B5001F0EEFE02214DF274
:104F40002C5001F0E9FEFE214DF22D5001F0E4FE5F
:104F500003214DF22E5001F0DFFE10214DF22F50B3
:104F600001F0DAFE03214DF2305001F0D5FE33217D
:104F70004DF2315001F0D0FE03214DF2325001F0DC
:104F8000CBFE6D214DF2335001F0C6FE00214FF4EF
:104F9000564001F0C1FE33214DF2016001F0BCFE2C
:104FA00000214DF2026001F0B7FE34214DF20360A2
:104FB00001F0B2FE00214DF2046001F0ADFE3A2195
:104FC0004DF2056001F0A8FE00214DF2066001F0EF
:104FD000A3FE4A214DF2076001F09EFE00214DF232
:104FE000086001F099FE5C214DF2096001F094FE29
:104FF00000214DF20A6001F08FFE81214DF20B601D
:1050000001F08AFE00214DF20C6001F085FEA62120
:105010004DF20D6001F080FE00214DF20E6001F0B6
:105020007BFEE5214DF20F6001F076FE01214DF28D
:10503000106001F071FE13214DF2116001F06CFE61
:1050400001214DF2126001F067FE54214DF2136010
:1050500001F062FE01214DF2146001F05DFE82213B
:105060004DF2156001F058FE01214DF2166001F07D
:1050700053FECA214DF2176001F04EFE02214DF29F
:10508000186001F049FE00214DF2196001F044FE64
:1050900002214DF21A6001F03FFE01214DF21B602A
:1050A00001F03AFE02214DF21C6001F035FE342180
:1050B0004DF21D6001F030FE02214DF21E6001F044
:1050C0002BFE67214DF21F6001F026FE02214DF2FA
:1050D000206001F021FE84214DF2216001F01CFED0
:1050E00002214DF2226001F017FEA4214DF223604F
:1050F00001F012FE02214DF2246001F00DFEB721F5
:105100004DF2256001F008FE02214DF2266001F00B
:1051100003FECF214DF2276001F0FEFD02214DF28A
:10512000286001F0F9FDDE214DF2296001F0F4FD67
:1051300002214DF22A6001F0EFFDF2214DF22B60C9
:1051400001F0EAFD02214DF22C6001F0E5FDFE21A7
:105150004DF22D6001F0E0FD03214DF22E6001F0D3
:10516000DBFD10214DF22F6001F0D6FD03214DF241
:10517000306001F0D1FD33214DF2316001F0CCFD02
:1051800003214DF2326001F0C7FD6D214DF2336015
:1051900001F0C2FD55214FF4704001F0BDFDAA2180
:1051A0004FF2010001F0B8FD52214FF2020001F070
:1051B000B3FD08214FF2030001F0AEFD00214FF2D4
:1051C000040001F0A9FDCC214FF4314001F0A4FD11
:1051D00000214BF2011001F09FFD05214FF43640F4
:1051E00001F09AFD70214FF4374001F095FD7021D8
:1051F0004BF2017001F090FD01214FF4384001F0B5
:105200008BFD03214BF6010001F086FD03214BF6D7
:10521000020001F081FD03214BF6030001F07CFD4B
:1052200002214FF43C4001F077FD00214BF6014094
:1052300001F072FD00214BF6024001F06DFDD0211E
:105240004FF4494001F068FD02214CF6011001F0D5
:1052500063FD50214CF6021001F05EFD50214CF62A
:10526000031001F059FD50214CF6041001F054FDDB
:1052700000214FF4545001F04FFD55214FF4685078
:1052800001F04AFD4FF4885001F036FD782003F01C
:1052900097FD4FF4245001F02FFD01F05BB9FE485B
:1052A000808849F2253188427ED147F6F001E52019
:1052B00001F032FD4FF48071012001F02DFD4FF41B
:1052C000E061022001F028FD41F23001032001F0ED
:1052D00023FD0021042001F01FFD40F202210820DF
:1052E00001F01AFD0021092001F016FD00210A201D
:1052F00001F012FD00210C2001F00EFD00210D2017
:1053000001F00AFD00210F2001F006FD0021102010
:1053100001F002FD0721112001F0FEFC0021122006
:1053200001F0FAFC0021132001F0F6FC0021072017
:1053300001F0F2FC41F29061102001F0EDFC40F22E
:105340002721112001F0E8FC9D21122001F0E4FC4E
:105350004FF4C851132001F0DFFC2521292001F072
:10536000DBFC0D212B2001F0D7FC0721302001F0C0
:10537000D3FC40F20331312001F0CEFC0321322076
:1053800001F0CAFC40F20621352001F0C5FC0821DD
:10539000362001F0C1FC40F20641372001F0BCFC90
:1053A0004FF44171382000E057E001F0B5FC0721CF
:1053B000392001F0B1FC40F202613C2001F0ACFC6C
:1053C00008213D2001F0A8FC0021502001F0A4FCA0
:1053D000EF21512001F0A0FC0021522001F09CFCA3
:1053E00040F23F11532001F097FC4FF42741602019
:1053F00001F092FC0121612001F08EFC00216A2065
:1054000001F08AFC0021802001F086FC002181202F
:1054100001F082FC0021822001F07EFC002183202B
:1054200001F07AFC0021842001F076FC0021852027
:1054300001F072FC1021902001F06EFC4FF4C0616D
:10544000922001F069FC40F23311072001F064FC66
:105450002221002001F060FC1FE78F48808849F27C
:10546000283188427ED141F28F01EC2001F054FCBA
:1054700041F23421EF2001F04FFC4FF48071012004
:1054800001F04AFC4FF4E061022001F045FC41F2DA
:105490003001032001F040FC0021042001F03CFC1D
:1054A00040F20221082001F037FC0021092001F020
:1054B00033FC00210A2001F02FFC01210C2001F017
:1054C0002BFC00210D2001F027FC00210F2001F012
:1054D00023FC0021102001F01FFC0721112001F006
:1054E0001BFC0021122001F017FC0021132001F009
:1054F00013FC0121072001F00FFC322003F03AFCDD
:1055000041F29041102001F007FC40F227211120C8
:1055100001F002FC322003F02DFC8A21122001F060
:10552000FBFB322003F026FC4FF4D051132001F096
:10553000F3FB0621292001F0EFFB0D212B2001F0C8
:10554000EBFB322003F016FC0021202001F0E4FBED
:105550000021212001F0E0FB322003F00BFC0021B0
:10556000302000E074E001F0D7FB40F2046131200C
:1055700001F0D2FB40F20531322001F0CDFB0021D9
:10558000352001F0C9FB40F60941362001F0C4FB8B
:105590004FF40171372001F0BFFB40F20131382098
:1055A00001F0BAFB40F20771392001F0B5FB002190
:1055B0003C2001F0B1FB40F60A213D2001F0ACFB9C
:1055C000322003F0D7FB0021502001F0A5FBEF2192
:1055D000512001F0A1FB0021522001F09DFB40F27F
:1055E0003F11532001F098FB4FF42741602001F058
:1055F00093FB0121612001F08FFB00216A2001F063
:105600008BFB0021802001F087FB0021812001F02D
:1056100083FB0021822001F07FFB0021832001F029
:105620007BFB0021842001F077FB0021852001F025
:1056300073FB1021902001F06FFB4FF4C0619220AA
:1056400001F06AFB40F23311072001F065FB24E60C
:105650001148808849F2203188427DD100210846D6
:1056600001F05AFB4FF48071012001F055FB4FF41B
:10567000E061022001F050FB41F23001032001F013
:105680004BFB0021042001F047FB40F202210820DF
:1056900001F042FB002101E0C0020020092001F0DE
:1056A0003BFB00210A2001F037FB01210C2001F017
:1056B00033FB00210D2001F02FFB00210F2001F012
:1056C0002BFB322003F056FB40F20111072001F0C2
:1056D00023FB322003F04EFB4FF48651102001F0E3
:1056E0001BFB0721112001F017FB4FF488711220DA
:1056F00001F012FB4FF43061132001F00DFB00218B
:10570000292001F009FB44F210012B2001F004FBD9
:105710000021502001F000FBEF21512001F0FCFAA4
:105720000021522001F0F8FA40F23F11532001F01D
:10573000F3FA4FF41C51602001F0EEFA01216120D0
:1057400001F0EAFA00216A2001F0E6FA0021802047
:1057500001F0E2FA002100E031E0812001F0DCFA02
:105760000021822001F0D8FA0021832001F0D4FA30
:105770000021842001F0D0FA0021852001F0CCFA2C
:105780001021902001F0C8FA0021922001F0C4FA03
:105790000121932001F0C0FA4FF48871952001F0A7
:1057A000BBFA0021972001F0B7FA0021982001F000
:1057B000B3FA40F27311072001F0AEFA6DE5FE482E
:1057C000808849F2313188427DD141F21401E720CD
:1057D00001F0A2FA4FF48071012001F09DFA4FF41C
:1057E0000071022001F098FA41F23801032001F023
:1057F00093FA40F20221082001F08EFA00210920DC
:1058000001F08AFA00210A2001F086FA00210C201A
:1058100001F082FA00210D2001F07EFA00210F2014
:1058200001F07AFA0021102001F076FA0721112008
:1058300001F072FA0021122001F06EFA002113200B
:1058400001F06AFAC82003F095FA41F29061102045
:1058500001F062FA40F22721112001F05DFA3220B6
:1058600003F088FA0C21122001F056FA322003F0DE
:1058700081FA4FF40061132001F04EFA1121292022
:1058800001F04AFA0B212B2001F046FA322003F0F6
:1058900071FA0021202001F03FFA40F23F1121204F
:1058A00001F03AFA0021302001F036FA4FF483710A
:1058B000312001F031FA0021322001F02DFA4FF4AD
:1058C0000171352000E064E001F026FA41F20A613E
:1058D000362001F021FA40F20771372001F01CFA5E
:1058E0004FF48371382001F017FA40F20771392024
:1058F00001F012FA40F202413C2001F00DFA40F6AC
:105900000F413D2001F008FA0021502001F004FA77
:10591000EF21512001F000FA0021522001F0FCF9A2
:1059200040F23F11532001F0F7F94FF41C51602071
:1059300001F0F2F90121612001F0EEF900216A2065
:1059400001F0EAF90021802001F0E6F90021812030
:1059500001F0E2F90021822001F0DEF9002183202C
:1059600001F0DAF90021842001F0D6F90021852028
:1059700001F0D2F91021902001F0CEF94FF4C0616E
:10598000922001F0C9F940F23311072001F0C4F967
:1059900083E48948808845F2084188427ED14FF4EB
:1059A0008071012001F0B8F94FF4E061022001F0AC
:1059B000B3F941F23001032001F0AEF900210420D7
:1059C00001F0AAF940F20721082001F0A5F9002111
:1059D000092001F0A1F900210A2001F09DF9002120
:1059E0000C2001F099F900210D2001F095F900211A
:1059F0000F2001F091F9142003F0BCF941F2B061DD
:105A0000102001F089F90121112001F085F901210F
:105A1000172001F081F94FF49C71122001F07CF9FC
:105A20004FF40061132001F077F90921292001F0DA
:105A300073F909212A2001F06FF90021A42001F057
:105A40006BF90021502001F067F9EF21512001F09E
:105A500063F90021522001F05FF940F23F11532019
:105A600001F05AF94FF41C51602001F055F9012161
:105A7000612001F051F900216A2001F04DF9002167
:105A8000802001F049F90021812001F045F9002131
:105A9000822001F041F90021832000E023E001F0A1
:105AA0003BF90021842001F037F90021852001F025
:105AB00033F91321902001F02FF90021922001F0F9
:105AC0002BF90321932001F027F94FF488719520D9
:105AD00001F022F940F27311072001F01DF9322084
